:0400000080313A28E9
:10000800803120007F08AC00911D15282400941D24
:10001800152821002B082A04031D152885310D25D4
:10002800803120009111FD017D082000AA00AB015C
:100038002A082100AA0020002B082100AB002B0869
:100048002A0403192928240015162100111F36280F
:100058002000111F362801302100A0070030A13DE3
:100068002000111320002C08FF00090080313C28D3
:1000780056308400003085000D3095311F258031C1
:10008800A030840000308500383095311F2580313C
:100098002030840001308500483095311F2580319B
:1000A800C4308400013085001B3095311F25803114
:1000B8002030840002308500243095311F2580319E
:1000C8000130840088308500D830860000308700F1
:1000D8000C30953119258031253084009530850004
:1000E8006830860001308700063095311925803147
:1000F8000630840097308500A030860001308700E4
:10010800243095311925200086312D2EFF3020000E
:10011800B5000030B6008A311B22803120002E083D
:10012800B601B6072D08B501B5078831E62080313C
:100138002000B300B4013308B7003408B800842B9A
:10014800210037083604031DC02801302000370677
:100158003804031DB6280C1501302100B800003002
:10016800B9000800200038083704031D08000C11E6
:100178002100B801B9010800013020003706380411
:10018800031DCD280C1101302100B8000030B90042
:100198000800200038083704031D08000C1521004A
:1001A800B801B901080021003B083A04031DF328EF
:1001B8000130200037063804031DE9288C1501306A
:1001C8002100BC000030BD000800200038083704BA
:1001D800031D08008C112100BC01BD01080001307D
:1001E800200037063804031D00298C110130210036
:1001F800BC000030BD000800200038083704031D8B
:1002080008008C152100BC01BD0108000130200048
:1002180037063804031D12298F14080038083704DC
:10022800031D08008F100800013037063804031D2D
:1002380020299531B8250800200038083704031D07
:1002480028299531C42508000230200037063804D3
:10025800031D08009531C42580319531B825080063
:100268000130200037063804031D3C298C1608008D
:1002780038083704031D08008C12080001303706BF
:100288003804031D49290C17080038083704031DD2
:1002980008000C130800013037063804031D5629DE
:1002A8008C17080038083704031D08008C13080051
:1002B800013037063804031D632910140800380874
:1002C8003704031D080010100800013037063804F1
:1002D800031D71298C171014080038083704031DF2
:1002E80008008C1310100800013037063804031D6D
:1002F8007F299014080038083704031D080090105F
:100308000800013037063804031D96295B085A0493
:10031800031D90299531552501302000DA00003061
:10032800DB000800023037063804031DA7295B08E4
:100338005A04031DA1299531552502302000DA0001
:100348000030DB00080038083704031D08000130BE
:100358005A065B04031DB22995315C252000DA0199
:10036800DB010800013037063804031DC7295F0880
:100378005E04031DC1299531632501302000DE008C
:100388000030DF000800023037063804031DD82982
:100398005F085E04031DD2299531632502302000D1
:1003A800DE000030DF00080038083704031D0800AD
:1003B80001305E065F04031DE32995316A2520009C
:1003C800DE01DF010800013037063804031DF82973
:1003D80059085804031DF229953171250130200070
:1003E800D8000030D9000800023037063804031D51
:1003F800092A59085804031D032A9531712502302A
:100408002000D8000030D900080038083704031D40
:1004180008005908803AFF0080307F02031D162A21
:1004280001305802031C1A2A953178252000D8017A
:10043800D9010800013037063804031D292A013084
:100448002100B6000030B70008002100B601B7014E
:1004580008000130200037063804031D392A01300E
:100468002100BA000030BB0008002100BA01BB011E
:1004780008000130200037063804031D472A8D1173
:100488000D110D12080038083704031D08008D15DA
:100498000D150D160800013037063804031D5B2AB8
:1004A8000F1501302100C6000030C70008000F11E9
:1004B8002100C601C70108000130200037063804B2
:1004C800031D682A0C16080038083704031D0800A5
:1004D8000C1208003808803AFF0080307F02031DA4
:1004E800772A653037020318842A2000380821004B
:1004F800E101E107200037082100E001E0070800DA
:1005080064302100E0000030E100080020003808D5
:10051800803AFF0080307F02031D942A653037023D
:100528000318A12A200038082100E101E107200072
:1005380037082100E001E007080064302100E000EE
:100548000030E100080020003808803AFF008030C1
:100558007F02031DB12A653037020318BE2A200026
:1005680038082100DF01DF07200037082100DE01FD
:10057800DE07080064302100DE000030DF000800DC
:100588000130200037063804031DD52A57085604C1
:10059800031D08000130D6000030D7009631182618
:1005A80008000130200056065704031D0800D60134
:1005B800D7019531D025080020003808803AFF007F
:1005C80080307F02031DEA2A043037020318F72A15
:1005D800200038082100AF01AF07200037082100AC
:1005E800AE01AE07080003302100AE000030AF00B6
:1005F800080020003808803AFF0080307F02031D81
:10060800072B653037020318142B20003808210007
:10061800D901D907200037082100D801D8070800D8
:1006280064302100D8000030D900080020003808C4
:10063800803AFF0080307F02031D242B653037028B
:100648000318312B200038082100DB01DB072000CC
:1006580037082100DA01DA07080064302100DA00DF
:100668000030DB00080020003808803AFF008030A6
:100678007F02031D412B6530370203184E2B2000E3
:1006880038082100DD01DD07200037082100DC01E2
:10069800DC07080064302100DC000030DD000800C1
:1006A8000130200037063804031D622B0130210079
:1006B800AC000030AD009531EA250800200038086C
:1006C8003704031D08002100AC01AD019531F9255F
:1006D80008000130200037063804031D792B01304B
:1006E8002100B0000030B1000800200038083704AD
:1006F800031D0800963161262100B001B1010800F0
:1007080020003508A03E8600013087000108303AF5
:1007180003198529013A0319B629033A0319E72968
:10072800013A0319602A073A0319C42A023A03193D
:10073800542B013A03191E2A0F3A03192D2A783A25
:1007480003196E2A013A03198A2A033A0319A72AB8
:10075800123A0319E02A013A0319FD2A033A031948
:100768001A2B013A0319372B233A03196D2BE03A58
:1007780003194F2A2B3A03193D2A073A0319A428CB
:10078800013A0319D728033A03190A297E3A0319AB
:100798001829253A03193429033A031942290E3A2C
:1007A80003194F29013A03195C29033A03196929E6
:1007B800013A03197829E02B0800FF302000BF0018
:1007C8000030C0008731BA27833120002E08C001CD
:1007D800C0072D08BF01BF078931232183312000BD
:1007E800BD00BE013D08C3003E08C4008931602138
:1007F80083312000BD00BE013D08C1003E08C20093
:1008080040082100A501A50720003F082100A401F8
:10081800A40720004308BD003D082100CF002000A8
:100828004108BD003D082100CE00F22C20004408FC
:100838002200AD01AD07200043082200AC01AC073F
:10084800200044082200A101A1072000430822003B
:10085800A001A00720004408B101B1074308B00176
:10086800B0074208B301B3074108B201B2078D319E
:1008780083250800200044082200AF01AF072000AC
:1008880043082200AE01AE07200044082200A3015D
:10089800A307200043082200A201A2072000440861
:1008A800B101B1074308B001B0074208B301B3076B
:1008B8004108B201B2078D318325080020004408A1
:1008C8002200B101B107200043082200B001B0079F
:1008D800200044082200A501A507200043082200A3
:1008E800A401A40720004408B101B1074308B001DE
:1008F800B0074208B301B3074108B201B2078D310E
:1009080083250800200044082200B301B307200013
:1009180043082200B201B207200044082200A701C0
:10092800A707200043082200A601A60720004408C4
:10093800B101B1074308B001B0074208B301B307DA
:100948004108B201B2078D31832508002000440810
:100958002200B501B507200043082200B401B407FE
:10096800200044082200A901A9072000430822000A
:10097800A801A80720004408B101B1074308B00145
:10098800B0074208B301B3074108B201B2078D317D
:1009980083250800200044082200B701B70720007B
:1009A80043082200B601B607200044082200AB0124
:1009B800AB07200043082200AA01AA072000440828
:1009C800B101B1074308B001B0074208B301B3074A
:1009D8004108B201B2078D318325080020003F0885
:1009E800683E8600013087000108D03A03191A2CA6
:1009F800013A03193E2C033A0319622C013A0319F0
:100A0800862C073A0319AA2C013A0319CE2C0C2D6F
:100A18000800FF302000A8000030A900A601A701A7
:100A2800FF30A0002008A400A501911D0800013096
:100A38002100AA000030AB002400151B1513110873
:100A48002000A0002008A6009531A2258531710854
:100A58007004031D212E20002608663A031D212E4E
:100A680024001516200091119531AD2585317108A6
:100A78007004031DEC2D2000911D3F2D240011084A
:100A88002000A0002008A7002400151620009111BE
:100A9800270888310D20853171082000A901A90790
:100AA8007008A801A8079531AD2585319531AD2588
:100AB80085319531A22585319531A225853195312C
:100AC800A2258531013070067104031DAF2D200069
:100AD8002908803AFF0080307F02031D752DFF3002
:100AE80028020318842D2000911D772D2908F7016D
:100AF800F7072808F601F6079631A9268531212E31
:100B0800200027089731CC27853171082000A901DA
:100B1800A9077008A801A8072908803AFF008030B3
:100B28007F02031D992DFF3028020318A82D2000ED
:100B3800911D9B2D2908F801F8072808F701F707E8
:100B480089319D218531212E240011082000A00023
:100B58002008A500212E240011082000A00020084C
:100B6800A6002608663A003003190130A000A1014A
:100B780001302004A20000302104A300230822042D
:100B88000319212E9531AD25853101307006710488
:100B9800031D212E20002908803AFF0080307F02A3
:100BA800031DD82DFF3028020318E52D2000290841
:100BB800F701F7072808F601F607953187258531EB
:100BC800E62DFF3024009100151620009111212EEA
:100BD8009531AD258531013070067104031D212E34
:100BE8002000911DF42D240011082000A0002008E9
:100BF800A700270888310D20853171082000A90138
:100C0800A9077008A801A8072908803AFF008030C2
:100C18007F02031D112EFF3028020318212E240005
:100C28001516200091112908F701F7072808F60181
:100C3800F607953187252400910024001516200019
:100C480091112100AA01AB01C801C901CC01CD0154
:100C580008002300E401E501E201E301E601E70100
:100C6800E801E901EA01EB01EC01ED01953190257C
:100C7800863148302300E1000630E000E530DF002F
:100C8800DF0B442EE00B442EE10B442E4B2E963105
:100C9800292686310130210030063104031D5A2EE1
:100CA8009631082686318B317823863120005B08FF
:100CB800803AFF0080307F02031D642E01305A0203
:100CC800031C7E2E23006708803AFF0080307F02D5
:100CD800031D702E65306602031C792E8B31EC23C0
:100CE80086312300E601E7017E2E01302300E60766
:100CF8000030E73D20005F08803AFF0080307F0227
:100D0800031D882E01305E02031CA22E23006908F1
:100D1800803AFF0080307F02031D942E6530680200
:100D2800031C9D2E8C31712486312300E801E901D2
:100D3800A22E01302300E8070030E93D20005908C1
:100D4800803AFF0080307F02031DAC2E013058022C
:100D5800031CC62E23006508803AFF0080307F02FE
:100D6800031DB82E65306402031CC12E8A3160222F
:100D780086312300E401E501C62E01302300E40793
:100D88000030E53D0130200056065704031DE42ECF
:100D980023006D08803AFF009F307F02031DD62E86
:100DA80041306C02031CDF2E8A31BA2286312300BF
:100DB800EC01ED01E42E01302300EC070030ED3D9D
:100DC800013021002C062D04031DED2E97315027EC
:100DD80086319731772786318831AB208631963135
:100DE800E526863123006B08803AFF0080307F02B9
:100DF800031D002F65306A02031C0B2F80318A20E7
:100E080086318331E12386312300EA01EB01013089
:100E18002300EA070030EB3D4E2E20004008C300B7
:100E28004108C4004208C5000310440D450DC60022
:100E38004608CB00CB08031D282F0030BD0000302A
:100E4800BE000030BF0008003D08C3003E08C400D3
:100E58003F08C5000310440D450DC6004608CC00E8
:100E6800CC08031D3E2F0030BD000030BE0000300E
:100E7800BF0008000030C8000030C9000030CA00B8
:100E880089304C07C3004308CB024008C30041081F
:100E9800C4004208C5001030C536C40CC30C890B09
:100EA800502F4308C6004608CC003D08C3003E0842
:100EB800C4003F08C5001030C536C40CC30C890BEC
:100EC800602F4308C6004608CC068030C30043089C
:100ED800CC05C117FF30C005FF30C1050030C20581
:100EE800BE17FF30BD05FF30BE050030BF05183006
:100EF800C3004308C7000130C835C90DCA0D890BA6
:100F0800802F3F084202031D8F2F3E084102031D18
:100F18008F2F3D084002031C982F3D08C0023E0851
:100F2800C13B3F08C23B48140130C035C10DC20D5A
:100F3800890B992F0130C702031D7F2F4808AD0088
:100F48004908AE004A08AF004B08C3004308B00088
:100F58004C08C4004408B1008B31172320002D0829
:100F6800BD002E08BE002F08BF000800230052084D
:100F78002000B001B007230051082000AF01AF07DF
:100F88000130B1000030B2003208803AFF008030F2
:100F98007F02031DD12F073031020318F22F2000E2
:100FA8003135D13E8600013087003135FE3ED13ED5
:100FB800840001308500403F803F413F813F013040
:100FC800B1070030B23D3208803AFF0080307F021E
:100FD800031DF02F07303102031CD32FFB302300F1
:100FE800DD000030DE0020003008AE01AE072F081B
:060FF800AD01AD07080089
:101002001E34003432340034463400341434003494
:101012001434003414340034F300F401F50175087B
:10102200803AFF0080307F02031D192824307402A9
:1010320003183B287408A03E86000130870001088F
:101042007306031D2C287508F101F1077408F001DD
:10105200F007200008000130F4070030F53D750864
:10106200803AFF0080307F02031D39282430740249
:10107200031C1B28FF30F0000030F10020000800A4
:101082002000B000B101B2013208803AFF00803086
:101092007F02031D4E2824303102031870282000DD
:1010A2003108A03E86000130870001083006031D8A
:1010B20061283208AE01AE073108AD01AD07080064
:1010C2000130B1070030B23D3208803AFF00803073
:1010D2007F02031D6E2824303102031C5028FF308A
:1010E2002000AD000030AE0008002000B000B101C9
:1010F200B2013208803AFF0080307F02031D83284C
:10110200063031020318A52820003108683E860007
:101112000130870001083006031D96283208AE010F
:10112200AE073108AD01AD0708000130B10700304C
:10113200B23D3208803AFF0080307F02031DA328AF
:1011420006303102031C8528FF302000AD0000303C
:10115200AE000800013021004A064B04031D0800BE
:101162004D08803AFF0080307F02031DBA28053007
:101172004C02031CD6282100CC01CD014908803A3B
:10118200FF0080307F02031DC82832304802031C52
:10119200D028963129262100C801C9010800013052
:1011A2002100C8070030C93D08001A302000B100F4
:1011B200F830B000B00BDB28B10BDB2800000130A7
:1011C2002100CC070030CD3D080022004C08200051
:1011D200AD002D08AE000130AF000030B000300885
:1011E200803AFF0080307F02031DF92807302F026A
:1011F20003181A2920002F084C3E86000130870070
:101202000108AD002F08FF3E4C3E860001308700EA
:101212002D0881000130AF070030B03D3008803A20
:10122200FF0080307F02031D182907302F02031CA4
:10123200FB28FB302000AD002D082200D200200048
:101242002E08080022005A082000AD002D08AE002A
:101252000130AF000030B0003008803AFF0080302B
:101262007F02031D362907302F0203185729200059
:101272002F085A3E8600013087000108AD002F0872
:10128200FF3E5A3E8600013087002D088100013062
:10129200AF070030B03D3008803AFF0080307F0257
:1012A200031D552907302F02031C3829FB3020006B
:1012B200AD002D082200E00020002E0808002200C8
:1012C20053082000AD002D08AE000130AF00003001
:1012D200B0003008803AFF0080307F02031D73297E
:1012E20007302F020318942920002F08533E86004E
:1012F200013087000108AD002F08FF3E533E8600F3
:10130200013087002D0881000130AF070030B03D69
:101312003008803AFF0080307F02031D9229073097
:101322002F02031C7529FB302000AD002D0822007E
:10133200D90020002E080800FB01FC01240011083E
:10134200F9007908FB00151620009111911DA729BB
:1013520024001108F9007908FC007C08F9007708DC
:10136200383E860001308700790881007B08F90049
:101372007708CB3E86000130870079088100780823
:10138200F101F1077708F001F0077708383E86008F
:10139200013087000108F9007908F2007708CB3E96
:1013A2008600013087000108FA007A08F3008931CB
:1013B200DB210800F501F6017608803AFF00803053
:1013C2007F02031DE629073075020318080075081D
:1013D200533E8600013087000108FB3A031D162A9E
:1013E20075085A3E8600013087000108FB3A031D4A
:1013F200162A7535D13E8600013087007008C03F3D
:101402007108C13F7308F4007508533E860001302D
:101412008700740881007208F40075085A3E86003D
:10142200013087007408810008000130F5070030A0
:10143200F63DDD2922003F082000B001B00722005E
:101442003E082000AF01AF070130B1000030B2000A
:101452003208803AFF0080307F02031D322A0730B3
:1014620031020318532A200031353E3E86000130F6
:1014720087003135FE3E3E3E840001308500403F0C
:10148200803F413F813F0130B1070030B23D320819
:10149200803AFF0080307F02031D512A073031025B
:1014A200031C342AFB302200CA000030CB0020008B
:1014B2003008AE01AE072F08AD01AD0708000130BC
:1014C200200058065904031D8D2A0F18892A21006D
:1014D2003508803A2000BA0021005F08803A2000D7
:1014E2003A02031D772A21005E08340203187F2A7C
:1014F20001302100B4070030B53D08002000B301DF
:10150200B30AE3308C31F6242100B401B50108009E
:101512002100B401B5010800023020005806590428
:10152200031D08000F1CB62A21003508803A20004E
:10153200BA0021005F08803A20003A02031DA42A63
:1015420021005E0834020318AC2A01302100B407DE
:101552000030B53D08002000B301B30AE3308C31FE
:10156200F6242100B401B50108002100B401B5013F
:101572000800052B9631752601302100A0070030A6
:10158200A13D08009D1808000130A0070030A13DD0
:1015920008001C0896318E268A3120003508C000CA
:1015A2003608C1003708C200CD30BD00CC30BE00C5
:1015B2003F30BF00873111278A3120003D08CD001E
:1015C2003E08CE003F08CF008E31B8268A31200077
:1015D2004E082100B301B30720004D082100B201DB
:1015E200B20732082000D5005508B30060308C31B4
:1015F200F62401302100A0070030A13D080001308F
:10160200A0000030A100080021002108003A0319BF
:101612000B2B002B2008013A0319BB2A033A0319AA
:10162200C32A013A0319CA2A002B080020003008F5
:101632000319202B2F082E042D04031D312B0030FB
:10164200AD000030AE000030AF0008000130B20043
:101652003208B0070130AF36AE0CAD0C890B2C2B23
:10166200FE302F0503194A2B272B0130B200320816
:10167200B0070130AD07003003180130AE0700306B
:1016820003180130AF070130AF36AE0CAD0C890B39
:10169200452BFF302F050319572B362B0130B00293
:1016A2000130AD35AE0DAF0D890B522BAE1F4F2B56
:1016B2003018612BFF30AD057F30AE05FF30AF052E
:1016C2000310B00C3008B200B301B4011030B235CF
:1016D200B30DB40D890B682B3208AD043308AE0488
:1016E2003408AF04310803190800AF170800FF30AF
:1016F2002000BA003A08BC00FF30BA003A08BB002A
:1017020022000D108D108D128C17101490141015CC
:101712002000BD01BD0A04303D020318D32B210075
:101722000D148D148D168C17101490141015A72BF0
:1017320021000D108D14A02B21000D148D108D167B
:10174200B32B21000D148D148D12B32B20003D08F4
:10175200013A0319992B033A03199D2B013A0319F4
:10176200A22BB32B20008C1BB92B3D08FF3EC72BAD
:101772001018BE2B3D08023EC72B9018C32B3D0804
:10178200053EC72B1019CB2B3D08083EBA003A087C
:10179200BC00D32B0130BA003A08BD0704303D0229
:1017A200031C902B3C08013E90310A008B31BA0099
:1017B2003A08BB003C08FF3A0319E62B3B08BA0083
:1017C2003A08B30071308C31F624FF302000BA00A1
:1017D2003A08BC000800013020005A065B04031DD1
:1017E2002F2C0C181E2C21003F08803A2000BA0032
:1017F20021006108803A20003A02031D032C2100D7
:1018020060083E0203180B2C01302100BE07003095
:10181200BF3D080020005D085C04031D1A2CB301C3
:10182200B30AE1308C31F62401302000DC000030B4
:10183200DD002100BE01BF0108002100BE01BF0181
:10184200013020005C065D04031D0800B301E13095
:101852008C31F6242000DC01DD01080002305A063A
:101862005B04031D08000C1C602C21003F08803A19
:101872002000BA0021006108803A20003A02031DCC
:10188200452C210060083E0203184D2C0130210036
:10189200BE070030BF3D080020005D085C04031D48
:1018A2005C2CB301B30AE1308C31F6240130200004
:1018B200DC000030DD002100BE01BF010800210074
:1018C200BE01BF01013020005C065D04031D08005B
:1018D200B301E1308C31F6242000DC01DD01080087
:1018E200013020005E065F04031DB42C8C18A32C6B
:1018F20021004108803A2000BA0021006308803AA2
:1019020020003A02031D882C2100620840020318BD
:10191200902C01302100C0070030C13D080020009A
:1019220061086004031D9F2CB301B30AE2308C31BD
:10193200F62401302000E0000030E1002100C00167
:10194200C10108002100C001C10101302000600670
:101952006104031D0800B301E2308C31F62420003B
:10196200E001E101080002305E065F04031D080089
:101972008C1CE52C21004108803A2000BA0021008D
:101982006308803A20003A02031DCA2C2100620833
:1019920040020318D22C01302100C0070030C13DA3
:1019A2000800200061086004031DE12CB301B30AA2
:1019B200E2308C31F62401302000E0000030E100FA
:1019C2002100C001C10108002100C001C101013094
:1019D200200060066104031D0800B301E2308C316F
:1019E200F6242000E001E10108002000B7003708DA
:1019F200883141208C3120002E08B601B6072D080F
:101A0200B501B507FF3035063604031D132D37081F
:101A1200883176208C3120002E08B601B6072D08B9
:101A2200B501B5073608803AFF0080307F02031DFA
:101A32001C2DFF303502031808002000B801B9013F
:101A4200772D20003808D13E86008701010837062D
:101A5200031D3D2D3708B4003808D13E86008701AA
:101A6200340881003308B4003808613E8600013032
:101A720087003408810008003808613E8600013082
:101A820087000108FF3A031D722D3708B400380899
:101A9200D13E86008701340881003308B40038083B
:101AA200613E860001308700340881000130210048
:101AB200A6070030A73D080020003708603A031946
:101AC200222D113A0319222D903A0319222D033A9D
:101AD2000319222D013A0319222D073A0319222D47
:101AE2003D2D01302000B8070030B93D3908803A59
:101AF200FF0080307F02031D802D0630380203185C
:101B020008005D2D2000B901BA010F30BB00003082
:101B1200BC000030AD000030AE009531DC258D31C7
:101B220020003308B5003208B400350DB50CB40CF2
:101B320007303405B70000303505B80037352C3E84
:101B42008600013087003008C03F3108C13F373579
:101B5200203E8600013087003208C03F3308C13F73
:101B62000730BB000030BC00BC1BDC2D3B0AB400BC
:101B72003108B6003008B500C12D360DB60CB50CD3
:101B8200B40BBE2D20003508B9003608BA0001306A
:101B9200B9050030BA053A08AF01AF073908AE01FE
:101BA200AE07953199258D31FF302000BB07FF30FC
:101BB200BC3DBC1FB72D0730BB000030BC00BC1BB6
:101BC200072E3B0AB4003308B6003208B500EC2DEC
:101BD200360DB60CB50CB40BE92D20003508B90052
:101BE2003608BA000130B9050030BA053A08AF012B
:101BF200AF073908AE01AE07953199258D31FF3017
:101C02002000BB07FF30BC3DBC1FE22D0130AD0000
:101C12000030AE009531DC258D3196314E268D3166
:101C220096314E268D3196314E268D3196314E2685
:101C3200080066302400920021000E168E150E1147
:101C420022000E168E1523000E128E110E11240084
:101C52009401941714170E309500951315179516C5
:101C6200151696019612161616149701171797163F
:101C72001716971117119301FE3093008B010B1762
:101C82008B1721009201911520009111D130AD00E6
:101C92000030AE00FF30AF000030B0000730B100BE
:101CA2000030B2009631C5268E3161302000AD0081
:101CB2000130AE00FF30AF000030B0000730B1009D
:101CC2000030B2009631C5268E314C302000AD0076
:101CD2000130AE00FB30AF000030B0000730B10081
:101CE2000030B2009631C5268E313E302000AD0064
:101CF2000130AE00FB30AF000030B0000E30B1005A
:101D02000030B2009631C5268E31D1302000AD00B0
:101D12000130AE00FB30AF000030B0000E30B10039
:101D22000030B2009631C5268E3153302000AD000E
:101D32000130AE00FB30AF000030B0000730B10020
:101D42000030B2009631C5268E315A302000AD00E7
:101D52000130AE00FB30AF000030B0000730B10000
:101D62000030B2009631C52620000E110800200076
:101D72004D08D1004E08D2004F08D3000310520D77
:101D8200530DD40054082100E900E908031DD32EA5
:101D920000302000D0000030CF000030CE000030F4
:101DA200CD00080020004D08D1004E08D2004F0897
:101DB200D3001730D336D20CD10C890BDB2E51084D
:101DC200D40054082100E4002000CE17FF30CD05D6
:101DD200FF30CE050030CF054D082100E500200080
:101DE2004E082100E60020004F082100E700E8012C
:101DF2008E30E902E91F1D2F6908803A8F3E0318D1
:101E02000C2F00302000D0000030CF000030CE0078
:101E12000030CD00080001302100E836E70CE60C66
:101E2200E50C890B0D2F01302000D1005108210053
:101E3200E9070319392F0C2F18306902031C352FBB
:101E420000302000D0000030CF000030CE00003043
:101E5200CD00080001302100E535E60DE70DE80D63
:101E6200890B2C2F0130E9022100E908031D2B2FD9
:101E720064080319472FE509E609E709E809E50AB5
:101E82000319E60A0319E70A0319E80A6808200099
:101E9200D000210067082000CF0021006608200042
:101EA200CE00210065082000CD000800F401F501F4
:101EB2007508803AFF0080307F02031D622F0630D2
:101EC200740203188F2F7008A03E8600013087002D
:101ED2007408D13E8400850100080106031D802F8D
:101EE2007408613E8600013087000108F200720822
:101EF200F300FF302100A607FF30A73D8F2F0130EE
:101F0200F4070030F53D7508803AFF0080307F020B
:101F1200031D8D2F06307402031C642F7508803A4E
:101F2200FF0080307F02031D982F063074020318D1
:101F3200B02FE22F21005108FF3A0319AB2F5108AD
:101F4200AC2F21003808AC2F21003C08AC2F210017
:101F52003208AC2FFF30F2007208F300FE2F700837
:101F6200A03E8600013087000108603A0319A82FBD
:101F7200CA3A03199B2F163A0319A22F013A0319E1
:101F8200A52FAB2FFE2F740AD13E860087010108D0
:101F9200F2007408D13E8600870172088100740A3B
:101FA200613E8600013087000108F2007408613E3C
:101FB200860001308700720881000130F40700308A
:101FC200F53D7508803AFF0080307F02031DEB2F3C
:101FD20005307402031CC42FFF30F2007408D13E96
:101FE2008600870172088100FF30F2007408613EAA
:101FF20086000130870072088100730808000034EF
:10200200313432343334343435343634373438348A
:0A20120039342A3430342334FF340B
:102A0A0021008C1320008C13080021000C122000D6
:102A1A000C12080021008C1220008C1208002100E0
:102A2A000C1320000C130800FE0012001E00FE0BFF
:102A3A001A2D0034640080010131890B202D0034E5
:102A4A00D034D134D234D334D434D53421000F1114
:102A5A0020000F1123000F11080021000C11200083
:102A6A000C1123000C11080021008C1120008C117C
:102A7A0023008C11080021008F1020008F102300E2
:102A8A000C11080021001010200010102300101053
:102A9A0008002100901020009010230090100800D8
:102AAA0021000C1420000C1023000C100800210037
:102ABA000C1020000C1023000C10080021008C14AC
:102ACA0020008C1023008C10080021008C1020009C
:102ADA008C1023008C10080021000F1420000F1006
:102AEA0023000F10080021000F1020000F102300F0
:102AFA000F10080021001908873968389900033037
:102B0A00990408007708F101F1077608F001F00747
:102B1A008F315727080095317F25953197312A271C
:102B2A0095318E311A26080020002E08031D8F17B2
:102B3A0003198F1396314E2608002400140E890CAF
:102B4A000139F200F3017208F0007308F10008007D
:102B5A002400140C890C0139F200F3017208F00008
:102B6A007308F100080020008F160330AE0097307A
:102B7A00AD00AD0BBE2DAE0BBE2DC32D080020003F
:102B8A008F120330AE009730AD00AD0BCA2DAE0BDD
:102B9A00CA2DCF2D080021009D012000111321000C
:102BAA0011130D1220000D1223000D12080020002F
:102BBA002D08031D0F1603190F12F930AF0000007C
:102BCA00AF0BE42DE82D0000080021000C122000B4
:102BDA000C1221008C1220008C1223008C1221006E
:102BEA000C1320000C13080021000C1220000C12F8
:102BFA0021008C1220008C1223008C1221000C134D
:102C0A0020000C13080021000D108D108D128C135A
:102C1A0010109010101123000D108D108D1210102D
:102C2A00901010110800013021009D0070309E00A4
:102C3A0020001113210011138B170B170D162000FA
:102C4A000D1223000D16080020000F151A30AF00D0
:102C5A005E30AE008630AD00AD0B312EAE0B312E9C
:102C6A00AF0B312E000020000F11080021008D113A
:102C7A0020008D1523008D1121000D1120000D1546
:102C8A0023000D1121000D1220000D1623000D1234
:102C9A00080020000F13F930AD000000AD0B522ED2
:102CAA00562E000020000F17F930AD000000AD0BC2
:102CBA005B2E5F2E0000080021000D108D108D1272
:102CCA008C1710149014101523000D108D108D12EE
:102CDA0010109010101122000D108D108D12080086
:102CEA0083302000AD002D0821009D052C302000E6
:102CFA00AD002D0821009D0403302000AE0097305E
:102D0A00AD00AD0B862EAE0B862E8B2E21009D14A8
:102D1A0008002000BC003C08B800B901BA01380814
:102D2A00AD003908AE003A08AF008E30BB003B0850
:102D3A00B000B1018B31172320002D08B5002E08F1
:102D4A00B6002F08B700080024001108F80076081A
:102D5A00203E860002308700780881007708F1015A
:102D6A00F1077608F001F0077608203E8600023067
:102D7A0087000108F8007808F20097319E270800BA
:102D8A0020002E08B501B5072D08B401B40701309B
:102D9A00B1020030B23BFF303206031DD62EFF309F
:102DAA003106031908002F08B300340886003508D5
:102DBA008700330881000130B4070030B53DCC2EBE
:102DCA000130210046064704031D08004508803AE1
:102DDA00FF0093307F02031DF42E89304402031C46
:102DEA00FE2E20000F112100C401C501C601C70132
:102DFA00080020000F1501302100C4070030C53D2E
:102E0A000800AA34BB34BC34BD34BE34C034E13407
:102E1A00E234E334E434E534E634E734E834E934DC
:102E2A00EA34EB34303431343234343436343734EF
:102E3A0038343334403441344234503451345234C7
:102E4A005334603490347034713423008C018D0112
:102E5A008E018F0195312B25973195313225973186
:102E6A009531392597319531402597319531052589
:102E7A00973195314725973195310A259731953103
:102E8A000F25973195311425973195314E25973174
:102E9A0096313B260800652F20000C128C160C1365
:102EAA00080020000C168C120C17080020000C16C3
:102EBA008C160C17080020000C128C120C13080038
:102ECA0021002F08003A03196B2F602F2E08013AB0
:102EDA000319512F033A0319562F013A03195B2F8D
:102EEA00602F080021002908803AFF0080307F0205
:102EFA00031D812F65302802031C982F2100270803
:102F0A00803AFF0080307F02031D8D2F0130260298
:102F1A00031C922F20000E15942F20000E11210061
:102F2A00A801A901080001302100A8070030A93D25
:102F3A000800F401F5017508803AFF0080307F022D
:102F4A00031DA92F073074020318080074084C3EA9
:102F5A008600013087000108FB3A031DC72F74352C
:102F6A003E3E8600013087007008C03F7108C13FAD
:102F7A007208F30074084C3E86000130870073081B
:102F8A00810008000130F4070030F53DA02FF3005E
:102F9A00F401F5017508803AFF0080307F02031DB5
:102FAA00D82F063074020318FA2F7408683E860078
:102FBA000130870001087306031DEB2F7508F10124
:102FCA00F1077408F001F007200008000130F40747
:102FDA000030F53D7508803AFF0080307F02031DFE
:102FEA00F82F06307402031CDA2FFF30F00000308D
:062FFA00F10020000800B8
:020000040001F9
:04000E00E4C9FFFF43
:00000001FF
